{
  "_format": "hh-sol-artifact-1",
  "contractName": "NFT",
  "sourceName": "contracts/NFT.sol",
  "abi": [
    {
      "inputs": [],
      "stateMutability": "nonpayable",
      "type": "constructor"
    },
    {
      "anonymous": false,
      "inputs": [
        {
          "indexed": true,
          "internalType": "address",
          "name": "owner",
          "type": "address"
        },
        {
          "indexed": true,
          "internalType": "address",
          "name": "approved",
          "type": "address"
        },
        {
          "indexed": true,
          "internalType": "uint256",
          "name": "tokenId",
          "type": "uint256"
        }
      ],
      "name": "Approval",
      "type": "event"
    },
    {
      "anonymous": false,
      "inputs": [
        {
          "indexed": true,
          "internalType": "address",
          "name": "owner",
          "type": "address"
        },
        {
          "indexed": true,
          "internalType": "address",
          "name": "operator",
          "type": "address"
        },
        {
          "indexed": false,
          "internalType": "bool",
          "name": "approved",
          "type": "bool"
        }
      ],
      "name": "ApprovalForAll",
      "type": "event"
    },
    {
      "anonymous": false,
      "inputs": [
        {
          "indexed": true,
          "internalType": "address",
          "name": "from",
          "type": "address"
        },
        {
          "indexed": true,
          "internalType": "address",
          "name": "to",
          "type": "address"
        },
        {
          "indexed": true,
          "internalType": "uint256",
          "name": "tokenId",
          "type": "uint256"
        }
      ],
      "name": "Transfer",
      "type": "event"
    },
    {
      "inputs": [
        {
          "internalType": "address",
          "name": "to",
          "type": "address"
        },
        {
          "internalType": "uint256",
          "name": "tokenId",
          "type": "uint256"
        }
      ],
      "name": "approve",
      "outputs": [],
      "stateMutability": "nonpayable",
      "type": "function"
    },
    {
      "inputs": [
        {
          "internalType": "address",
          "name": "owner",
          "type": "address"
        }
      ],
      "name": "balanceOf",
      "outputs": [
        {
          "internalType": "uint256",
          "name": "",
          "type": "uint256"
        }
      ],
      "stateMutability": "view",
      "type": "function"
    },
    {
      "inputs": [
        {
          "internalType": "uint256",
          "name": "tokenId",
          "type": "uint256"
        }
      ],
      "name": "getApproved",
      "outputs": [
        {
          "internalType": "address",
          "name": "",
          "type": "address"
        }
      ],
      "stateMutability": "view",
      "type": "function"
    },
    {
      "inputs": [
        {
          "internalType": "address",
          "name": "owner",
          "type": "address"
        },
        {
          "internalType": "address",
          "name": "operator",
          "type": "address"
        }
      ],
      "name": "isApprovedForAll",
      "outputs": [
        {
          "internalType": "bool",
          "name": "",
          "type": "bool"
        }
      ],
      "stateMutability": "view",
      "type": "function"
    },
    {
      "inputs": [
        {
          "internalType": "string",
          "name": "tokenURI",
          "type": "string"
        }
      ],
      "name": "mint",
      "outputs": [
        {
          "internalType": "uint256",
          "name": "",
          "type": "uint256"
        }
      ],
      "stateMutability": "nonpayable",
      "type": "function"
    },
    {
      "inputs": [],
      "name": "name",
      "outputs": [
        {
          "internalType": "string",
          "name": "",
          "type": "string"
        }
      ],
      "stateMutability": "view",
      "type": "function"
    },
    {
      "inputs": [
        {
          "internalType": "uint256",
          "name": "tokenId",
          "type": "uint256"
        }
      ],
      "name": "ownerOf",
      "outputs": [
        {
          "internalType": "address",
          "name": "",
          "type": "address"
        }
      ],
      "stateMutability": "view",
      "type": "function"
    },
    {
      "inputs": [
        {
          "internalType": "address",
          "name": "from",
          "type": "address"
        },
        {
          "internalType": "address",
          "name": "to",
          "type": "address"
        },
        {
          "internalType": "uint256",
          "name": "tokenId",
          "type": "uint256"
        }
      ],
      "name": "safeTransferFrom",
      "outputs": [],
      "stateMutability": "nonpayable",
      "type": "function"
    },
    {
      "inputs": [
        {
          "internalType": "address",
          "name": "from",
          "type": "address"
        },
        {
          "internalType": "address",
          "name": "to",
          "type": "address"
        },
        {
          "internalType": "uint256",
          "name": "tokenId",
          "type": "uint256"
        },
        {
          "internalType": "bytes",
          "name": "data",
          "type": "bytes"
        }
      ],
      "name": "safeTransferFrom",
      "outputs": [],
      "stateMutability": "nonpayable",
      "type": "function"
    },
    {
      "inputs": [
        {
          "internalType": "address",
          "name": "operator",
          "type": "address"
        },
        {
          "internalType": "bool",
          "name": "approved",
          "type": "bool"
        }
      ],
      "name": "setApprovalForAll",
      "outputs": [],
      "stateMutability": "nonpayable",
      "type": "function"
    },
    {
      "inputs": [
        {
          "internalType": "bytes4",
          "name": "interfaceId",
          "type": "bytes4"
        }
      ],
      "name": "supportsInterface",
      "outputs": [
        {
          "internalType": "bool",
          "name": "",
          "type": "bool"
        }
      ],
      "stateMutability": "view",
      "type": "function"
    },
    {
      "inputs": [],
      "name": "symbol",
      "outputs": [
        {
          "internalType": "string",
          "name": "",
          "type": "string"
        }
      ],
      "stateMutability": "view",
      "type": "function"
    },
    {
      "inputs": [
        {
          "internalType": "uint256",
          "name": "tokenId",
          "type": "uint256"
        }
      ],
      "name": "tokenURI",
      "outputs": [
        {
          "internalType": "string",
          "name": "",
          "type": "string"
        }
      ],
      "stateMutability": "view",
      "type": "function"
    },
    {
      "inputs": [],
      "name": "totalSupply",
      "outputs": [
        {
          "internalType": "uint256",
          "name": "",
          "type": "uint256"
        }
      ],
      "stateMutability": "view",
      "type": "function"
    },
    {
      "inputs": [
        {
          "internalType": "address",
          "name": "from",
          "type": "address"
        },
        {
          "internalType": "address",
          "name": "to",
          "type": "address"
        },
        {
          "internalType": "uint256",
          "name": "tokenId",
          "type": "uint256"
        }
      ],
      "name": "transferFrom",
      "outputs": [],
      "stateMutability": "nonpayable",
      "type": "function"
    }
  ],
  "bytecode": "0x60806040523480156200001157600080fd5b506040518060400160405280600a81526020017f44615820417373657473000000000000000000000000000000000000000000008152506040518060400160405280600381526020017f444158000000000000000000000000000000000000000000000000000000000081525081600090816200008f919062000324565b508060019081620000a1919062000324565b5050506200040b565b600081519050919050565b7f4e487b7100000000000000000000000000000000000000000000000000000000600052604160045260246000fd5b7f4e487b7100000000000000000000000000000000000000000000000000000000600052602260045260246000fd5b600060028204905060018216806200012c57607f821691505b602082108103620001425762000141620000e4565b5b50919050565b60008190508160005260206000209050919050565b60006020601f8301049050919050565b600082821b905092915050565b600060088302620001ac7fffffffffffffffffffffffffffffffffffffffffffffffffffffffffffffffff826200016d565b620001b886836200016d565b95508019841693508086168417925050509392505050565b6000819050919050565b6000819050919050565b600062000205620001ff620001f984620001d0565b620001da565b620001d0565b9050919050565b6000819050919050565b6200022183620001e4565b6200023962000230826200020c565b8484546200017a565b825550505050565b600090565b6200025062000241565b6200025d81848462000216565b505050565b5b8181101562000285576200027960008262000246565b60018101905062000263565b5050565b601f821115620002d4576200029e8162000148565b620002a9846200015d565b81016020851015620002b9578190505b620002d1620002c8856200015d565b83018262000262565b50505b505050565b600082821c905092915050565b6000620002f960001984600802620002d9565b1980831691505092915050565b6000620003148383620002e6565b9150826002028217905092915050565b6200032f82620000aa565b67ffffffffffffffff8111156200034b576200034a620000b5565b5b62000357825462000113565b6200036482828562000289565b600060209050601f8311600181146200039c576000841562000387578287015190505b62000393858262000306565b86555062000403565b601f198416620003ac8662000148565b60005b82811015620003d657848901518255600182019150602085019450602081019050620003af565b86831015620003f65784890151620003f2601f891682620002e6565b8355505b6001600288020188555050505b505050505050565b612c24806200041b6000396000f3fe608060405234801561001057600080fd5b50600436106100f55760003560e01c80636352211e11610097578063b88d4fde11610066578063b88d4fde14610284578063c87b56dd146102a0578063d85d3d27146102d0578063e985e9c514610300576100f5565b80636352211e146101ea57806370a082311461021a57806395d89b411461024a578063a22cb46514610268576100f5565b8063095ea7b3116100d3578063095ea7b31461017857806318160ddd1461019457806323b872dd146101b257806342842e0e146101ce576100f5565b806301ffc9a7146100fa57806306fdde031461012a578063081812fc14610148575b600080fd5b610114600480360381019061010f9190611a8f565b610330565b6040516101219190611ad7565b60405180910390f35b610132610412565b60405161013f9190611b82565b60405180910390f35b610162600480360381019061015d9190611bda565b6104a4565b60405161016f9190611c48565b60405180910390f35b610192600480360381019061018d9190611c8f565b6104ea565b005b61019c610601565b6040516101a99190611cde565b60405180910390f35b6101cc60048036038101906101c79190611cf9565b610612565b005b6101e860048036038101906101e39190611cf9565b610672565b005b61020460048036038101906101ff9190611bda565b610692565b6040516102119190611c48565b60405180910390f35b610234600480360381019061022f9190611d4c565b610718565b6040516102419190611cde565b60405180910390f35b6102526107cf565b60405161025f9190611b82565b60405180910390f35b610282600480360381019061027d9190611da5565b610861565b005b61029e60048036038101906102999190611f1a565b610877565b005b6102ba60048036038101906102b59190611bda565b6108d9565b6040516102c79190611b82565b60405180910390f35b6102ea60048036038101906102e5919061203e565b6109eb565b6040516102f79190611cde565b60405180910390f35b61031a60048036038101906103159190612087565b610a21565b6040516103279190611ad7565b60405180910390f35b60007f80ac58cd000000000000000000000000000000000000000000000000000000007bffffffffffffffffffffffffffffffffffffffffffffffffffffffff1916827bffffffffffffffffffffffffffffffffffffffffffffffffffffffff191614806103fb57507f5b5e139f000000000000000000000000000000000000000000000000000000007bffffffffffffffffffffffffffffffffffffffffffffffffffffffff1916827bffffffffffffffffffffffffffffffffffffffffffffffffffffffff1916145b8061040b575061040a82610ab5565b5b9050919050565b606060008054610421906120f6565b80601f016020809104026020016040519081016040528092919081815260200182805461044d906120f6565b801561049a5780601f1061046f5761010080835404028352916020019161049a565b820191906000526020600020905b81548152906001019060200180831161047d57829003601f168201915b5050505050905090565b60006104af82610b1f565b6004600083815260200190815260200160002060009054906101000a900473ffffffffffffffffffffffffffffffffffffffff169050919050565b60006104f582610692565b90508073ffffffffffffffffffffffffffffffffffffffff168373ffffffffffffffffffffffffffffffffffffffff1603610565576040517f08c379a000000000000000000000000000000000000000000000000000000000815260040161055c90612199565b60405180910390fd5b8073ffffffffffffffffffffffffffffffffffffffff16610584610b6a565b73ffffffffffffffffffffffffffffffffffffffff1614806105b357506105b2816105ad610b6a565b610a21565b5b6105f2576040517f08c379a00000000000000000000000000000000000000000000000000000000081526004016105e99061222b565b60405180910390fd5b6105fc8383610b72565b505050565b600061060d6007610c2b565b905090565b61062361061d610b6a565b82610c39565b610662576040517f08c379a0000000000000000000000000000000000000000000000000000000008152600401610659906122bd565b60405180910390fd5b61066d838383610cce565b505050565b61068d83838360405180602001604052806000815250610877565b505050565b60008061069e83610fc7565b9050600073ffffffffffffffffffffffffffffffffffffffff168173ffffffffffffffffffffffffffffffffffffffff160361070f576040517f08c379a000000000000000000000000000000000000000000000000000000000815260040161070690612329565b60405180910390fd5b80915050919050565b60008073ffffffffffffffffffffffffffffffffffffffff168273ffffffffffffffffffffffffffffffffffffffff1603610788576040517f08c379a000000000000000000000000000000000000000000000000000000000815260040161077f906123bb565b60405180910390fd5b600360008373ffffffffffffffffffffffffffffffffffffffff1673ffffffffffffffffffffffffffffffffffffffff168152602001908152602001600020549050919050565b6060600180546107de906120f6565b80601f016020809104026020016040519081016040528092919081815260200182805461080a906120f6565b80156108575780601f1061082c57610100808354040283529160200191610857565b820191906000526020600020905b81548152906001019060200180831161083a57829003601f168201915b5050505050905090565b61087361086c610b6a565b8383611004565b5050565b610888610882610b6a565b83610c39565b6108c7576040517f08c379a00000000000000000000000000000000000000000000000000000000081526004016108be906122bd565b60405180910390fd5b6108d384848484611170565b50505050565b60606108e482610b1f565b6000600660008481526020019081526020016000208054610904906120f6565b80601f0160208091040260200160405190810160405280929190818152602001828054610930906120f6565b801561097d5780601f106109525761010080835404028352916020019161097d565b820191906000526020600020905b81548152906001019060200180831161096057829003601f168201915b50505050509050600061098e6111cc565b905060008151036109a35781925050506109e6565b6000825111156109d85780826040516020016109c0929190612417565b604051602081830303815290604052925050506109e6565b6109e1846111e3565b925050505b919050565b6000806109f86007610c2b565b9050610a04338261124b565b610a0e8184611468565b610a1860076114d5565b80915050919050565b6000600560008473ffffffffffffffffffffffffffffffffffffffff1673ffffffffffffffffffffffffffffffffffffffff16815260200190815260200160002060008373ffffffffffffffffffffffffffffffffffffffff1673ffffffffffffffffffffffffffffffffffffffff16815260200190815260200160002060009054906101000a900460ff16905092915050565b60007f01ffc9a7000000000000000000000000000000000000000000000000000000007bffffffffffffffffffffffffffffffffffffffffffffffffffffffff1916827bffffffffffffffffffffffffffffffffffffffffffffffffffffffff1916149050919050565b610b28816114eb565b610b67576040517f08c379a0000000000000000000000000000000000000000000000000000000008152600401610b5e90612329565b60405180910390fd5b50565b600033905090565b816004600083815260200190815260200160002060006101000a81548173ffffffffffffffffffffffffffffffffffffffff021916908373ffffffffffffffffffffffffffffffffffffffff160217905550808273ffffffffffffffffffffffffffffffffffffffff16610be583610692565b73ffffffffffffffffffffffffffffffffffffffff167f8c5be1e5ebec7d5bd14f71427d1e84f3dd0314c0f7b2291e5b200ac8c7c3b92560405160405180910390a45050565b600081600001549050919050565b600080610c4583610692565b90508073ffffffffffffffffffffffffffffffffffffffff168473ffffffffffffffffffffffffffffffffffffffff161480610c875750610c868185610a21565b5b80610cc557508373ffffffffffffffffffffffffffffffffffffffff16610cad846104a4565b73ffffffffffffffffffffffffffffffffffffffff16145b91505092915050565b8273ffffffffffffffffffffffffffffffffffffffff16610cee82610692565b73ffffffffffffffffffffffffffffffffffffffff1614610d44576040517f08c379a0000000000000000000000000000000000000000000000000000000008152600401610d3b906124ad565b60405180910390fd5b600073ffffffffffffffffffffffffffffffffffffffff168273ffffffffffffffffffffffffffffffffffffffff1603610db3576040517f08c379a0000000000000000000000000000000000000000000000000000000008152600401610daa9061253f565b60405180910390fd5b610dc0838383600161152c565b8273ffffffffffffffffffffffffffffffffffffffff16610de082610692565b73ffffffffffffffffffffffffffffffffffffffff1614610e36576040517f08c379a0000000000000000000000000000000000000000000000000000000008152600401610e2d906124ad565b60405180910390fd5b6004600082815260200190815260200160002060006101000a81549073ffffffffffffffffffffffffffffffffffffffff02191690556001600360008573ffffffffffffffffffffffffffffffffffffffff1673ffffffffffffffffffffffffffffffffffffffff168152602001908152602001600020600082825403925050819055506001600360008473ffffffffffffffffffffffffffffffffffffffff1673ffffffffffffffffffffffffffffffffffffffff16815260200190815260200160002060008282540192505081905550816002600083815260200190815260200160002060006101000a81548173ffffffffffffffffffffffffffffffffffffffff021916908373ffffffffffffffffffffffffffffffffffffffff160217905550808273ffffffffffffffffffffffffffffffffffffffff168473ffffffffffffffffffffffffffffffffffffffff167fddf252ad1be2c89b69c2b068fc378daa952ba7f163c4a11628f55a4df523b3ef60405160405180910390a4610fc28383836001611652565b505050565b60006002600083815260200190815260200160002060009054906101000a900473ffffffffffffffffffffffffffffffffffffffff169050919050565b8173ffffffffffffffffffffffffffffffffffffffff168373ffffffffffffffffffffffffffffffffffffffff1603611072576040517f08c379a0000000000000000000000000000000000000000000000000000000008152600401611069906125ab565b60405180910390fd5b80600560008573ffffffffffffffffffffffffffffffffffffffff1673ffffffffffffffffffffffffffffffffffffffff16815260200190815260200160002060008473ffffffffffffffffffffffffffffffffffffffff1673ffffffffffffffffffffffffffffffffffffffff16815260200190815260200160002060006101000a81548160ff0219169083151502179055508173ffffffffffffffffffffffffffffffffffffffff168373ffffffffffffffffffffffffffffffffffffffff167f17307eab39ab6107e8899845ad3d59bd9653f200f220920489ca2b5937696c31836040516111639190611ad7565b60405180910390a3505050565b61117b848484610cce565b61118784848484611658565b6111c6576040517f08c379a00000000000000000000000000000000000000000000000000000000081526004016111bd9061263d565b60405180910390fd5b50505050565b606060405180602001604052806000815250905090565b60606111ee82610b1f565b60006111f86111cc565b905060008151116112185760405180602001604052806000815250611243565b80611222846117df565b604051602001611233929190612417565b6040516020818303038152906040525b915050919050565b600073ffffffffffffffffffffffffffffffffffffffff168273ffffffffffffffffffffffffffffffffffffffff16036112ba576040517f08c379a00000000000000000000000000000000000000000000000000000000081526004016112b1906126a9565b60405180910390fd5b6112c3816114eb565b15611303576040517f08c379a00000000000000000000000000000000000000000000000000000000081526004016112fa90612715565b60405180910390fd5b61131160008383600161152c565b61131a816114eb565b1561135a576040517f08c379a000000000000000000000000000000000000000000000000000000000815260040161135190612715565b60405180910390fd5b6001600360008473ffffffffffffffffffffffffffffffffffffffff1673ffffffffffffffffffffffffffffffffffffffff16815260200190815260200160002060008282540192505081905550816002600083815260200190815260200160002060006101000a81548173ffffffffffffffffffffffffffffffffffffffff021916908373ffffffffffffffffffffffffffffffffffffffff160217905550808273ffffffffffffffffffffffffffffffffffffffff16600073ffffffffffffffffffffffffffffffffffffffff167fddf252ad1be2c89b69c2b068fc378daa952ba7f163c4a11628f55a4df523b3ef60405160405180910390a4611464600083836001611652565b5050565b611471826114eb565b6114b0576040517f08c379a00000000000000000000000000000000000000000000000000000000081526004016114a7906127a7565b60405180910390fd5b806006600084815260200190815260200160002090816114d09190612973565b505050565b6001816000016000828254019250508190555050565b60008073ffffffffffffffffffffffffffffffffffffffff1661150d83610fc7565b73ffffffffffffffffffffffffffffffffffffffff1614159050919050565b600181111561164c57600073ffffffffffffffffffffffffffffffffffffffff168473ffffffffffffffffffffffffffffffffffffffff16146115c05780600360008673ffffffffffffffffffffffffffffffffffffffff1673ffffffffffffffffffffffffffffffffffffffff16815260200190815260200160002060008282546115b89190612a74565b925050819055505b600073ffffffffffffffffffffffffffffffffffffffff168373ffffffffffffffffffffffffffffffffffffffff161461164b5780600360008573ffffffffffffffffffffffffffffffffffffffff1673ffffffffffffffffffffffffffffffffffffffff16815260200190815260200160002060008282546116439190612aa8565b925050819055505b5b50505050565b50505050565b60006116798473ffffffffffffffffffffffffffffffffffffffff166118ad565b156117d2578373ffffffffffffffffffffffffffffffffffffffff1663150b7a026116a2610b6a565b8786866040518563ffffffff1660e01b81526004016116c49493929190612b31565b6020604051808303816000875af192505050801561170057506040513d601f19601f820116820180604052508101906116fd9190612b92565b60015b611782573d8060008114611730576040519150601f19603f3d011682016040523d82523d6000602084013e611735565b606091505b50600081510361177a576040517f08c379a00000000000000000000000000000000000000000000000000000000081526004016117719061263d565b60405180910390fd5b805181602001fd5b63150b7a0260e01b7bffffffffffffffffffffffffffffffffffffffffffffffffffffffff1916817bffffffffffffffffffffffffffffffffffffffffffffffffffffffff1916149150506117d7565b600190505b949350505050565b6060600060016117ee846118d0565b01905060008167ffffffffffffffff81111561180d5761180c611def565b5b6040519080825280601f01601f19166020018201604052801561183f5781602001600182028036833780820191505090505b509050600082602001820190505b6001156118a2578080600190039150507f3031323334353637383961626364656600000000000000000000000000000000600a86061a8153600a858161189657611895612bbf565b5b0494506000850361184d575b819350505050919050565b6000808273ffffffffffffffffffffffffffffffffffffffff163b119050919050565b600080600090507a184f03e93ff9f4daa797ed6e38ed64bf6a1f010000000000000000831061192e577a184f03e93ff9f4daa797ed6e38ed64bf6a1f010000000000000000838161192457611923612bbf565b5b0492506040810190505b6d04ee2d6d415b85acef8100000000831061196b576d04ee2d6d415b85acef8100000000838161196157611960612bbf565b5b0492506020810190505b662386f26fc10000831061199a57662386f26fc1000083816119905761198f612bbf565b5b0492506010810190505b6305f5e10083106119c3576305f5e10083816119b9576119b8612bbf565b5b0492506008810190505b61271083106119e85761271083816119de576119dd612bbf565b5b0492506004810190505b60648310611a0b5760648381611a0157611a00612bbf565b5b0492506002810190505b600a8310611a1a576001810190505b80915050919050565b6000604051905090565b600080fd5b600080fd5b60007fffffffff0000000000000000000000000000000000000000000000000000000082169050919050565b611a6c81611a37565b8114611a7757600080fd5b50565b600081359050611a8981611a63565b92915050565b600060208284031215611aa557611aa4611a2d565b5b6000611ab384828501611a7a565b91505092915050565b60008115159050919050565b611ad181611abc565b82525050565b6000602082019050611aec6000830184611ac8565b92915050565b600081519050919050565b600082825260208201905092915050565b60005b83811015611b2c578082015181840152602081019050611b11565b60008484015250505050565b6000601f19601f8301169050919050565b6000611b5482611af2565b611b5e8185611afd565b9350611b6e818560208601611b0e565b611b7781611b38565b840191505092915050565b60006020820190508181036000830152611b9c8184611b49565b905092915050565b6000819050919050565b611bb781611ba4565b8114611bc257600080fd5b50565b600081359050611bd481611bae565b92915050565b600060208284031215611bf057611bef611a2d565b5b6000611bfe84828501611bc5565b91505092915050565b600073ffffffffffffffffffffffffffffffffffffffff82169050919050565b6000611c3282611c07565b9050919050565b611c4281611c27565b82525050565b6000602082019050611c5d6000830184611c39565b92915050565b611c6c81611c27565b8114611c7757600080fd5b50565b600081359050611c8981611c63565b92915050565b60008060408385031215611ca657611ca5611a2d565b5b6000611cb485828601611c7a565b9250506020611cc585828601611bc5565b9150509250929050565b611cd881611ba4565b82525050565b6000602082019050611cf36000830184611ccf565b92915050565b600080600060608486031215611d1257611d11611a2d565b5b6000611d2086828701611c7a565b9350506020611d3186828701611c7a565b9250506040611d4286828701611bc5565b9150509250925092565b600060208284031215611d6257611d61611a2d565b5b6000611d7084828501611c7a565b91505092915050565b611d8281611abc565b8114611d8d57600080fd5b50565b600081359050611d9f81611d79565b92915050565b60008060408385031215611dbc57611dbb611a2d565b5b6000611dca85828601611c7a565b9250506020611ddb85828601611d90565b9150509250929050565b600080fd5b600080fd5b7f4e487b7100000000000000000000000000000000000000000000000000000000600052604160045260246000fd5b611e2782611b38565b810181811067ffffffffffffffff82111715611e4657611e45611def565b5b80604052505050565b6000611e59611a23565b9050611e658282611e1e565b919050565b600067ffffffffffffffff821115611e8557611e84611def565b5b611e8e82611b38565b9050602081019050919050565b82818337600083830152505050565b6000611ebd611eb884611e6a565b611e4f565b905082815260208101848484011115611ed957611ed8611dea565b5b611ee4848285611e9b565b509392505050565b600082601f830112611f0157611f00611de5565b5b8135611f11848260208601611eaa565b91505092915050565b60008060008060808587031215611f3457611f33611a2d565b5b6000611f4287828801611c7a565b9450506020611f5387828801611c7a565b9350506040611f6487828801611bc5565b925050606085013567ffffffffffffffff811115611f8557611f84611a32565b5b611f9187828801611eec565b91505092959194509250565b600067ffffffffffffffff821115611fb857611fb7611def565b5b611fc182611b38565b9050602081019050919050565b6000611fe1611fdc84611f9d565b611e4f565b905082815260208101848484011115611ffd57611ffc611dea565b5b612008848285611e9b565b509392505050565b600082601f83011261202557612024611de5565b5b8135612035848260208601611fce565b91505092915050565b60006020828403121561205457612053611a2d565b5b600082013567ffffffffffffffff81111561207257612071611a32565b5b61207e84828501612010565b91505092915050565b6000806040838503121561209e5761209d611a2d565b5b60006120ac85828601611c7a565b92505060206120bd85828601611c7a565b9150509250929050565b7f4e487b7100000000000000000000000000000000000000000000000000000000600052602260045260246000fd5b6000600282049050600182168061210e57607f821691505b602082108103612121576121206120c7565b5b50919050565b7f4552433732313a20617070726f76616c20746f2063757272656e74206f776e6560008201527f7200000000000000000000000000000000000000000000000000000000000000602082015250565b6000612183602183611afd565b915061218e82612127565b604082019050919050565b600060208201905081810360008301526121b281612176565b9050919050565b7f4552433732313a20617070726f76652063616c6c6572206973206e6f7420746f60008201527f6b656e206f776e6572206f7220617070726f76656420666f7220616c6c000000602082015250565b6000612215603d83611afd565b9150612220826121b9565b604082019050919050565b6000602082019050818103600083015261224481612208565b9050919050565b7f4552433732313a2063616c6c6572206973206e6f7420746f6b656e206f776e6560008201527f72206f7220617070726f76656400000000000000000000000000000000000000602082015250565b60006122a7602d83611afd565b91506122b28261224b565b604082019050919050565b600060208201905081810360008301526122d68161229a565b9050919050565b7f4552433732313a20696e76616c696420746f6b656e2049440000000000000000600082015250565b6000612313601883611afd565b915061231e826122dd565b602082019050919050565b6000602082019050818103600083015261234281612306565b9050919050565b7f4552433732313a2061646472657373207a65726f206973206e6f74206120766160008201527f6c6964206f776e65720000000000000000000000000000000000000000000000602082015250565b60006123a5602983611afd565b91506123b082612349565b604082019050919050565b600060208201905081810360008301526123d481612398565b9050919050565b600081905092915050565b60006123f182611af2565b6123fb81856123db565b935061240b818560208601611b0e565b80840191505092915050565b600061242382856123e6565b915061242f82846123e6565b91508190509392505050565b7f4552433732313a207472616e736665722066726f6d20696e636f72726563742060008201527f6f776e6572000000000000000000000000000000000000000000000000000000602082015250565b6000612497602583611afd565b91506124a28261243b565b604082019050919050565b600060208201905081810360008301526124c68161248a565b9050919050565b7f4552433732313a207472616e7366657220746f20746865207a65726f2061646460008201527f7265737300000000000000000000000000000000000000000000000000000000602082015250565b6000612529602483611afd565b9150612534826124cd565b604082019050919050565b600060208201905081810360008301526125588161251c565b9050919050565b7f4552433732313a20617070726f766520746f2063616c6c657200000000000000600082015250565b6000612595601983611afd565b91506125a08261255f565b602082019050919050565b600060208201905081810360008301526125c481612588565b9050919050565b7f4552433732313a207472616e7366657220746f206e6f6e20455243373231526560008201527f63656976657220696d706c656d656e7465720000000000000000000000000000602082015250565b6000612627603283611afd565b9150612632826125cb565b604082019050919050565b600060208201905081810360008301526126568161261a565b9050919050565b7f4552433732313a206d696e7420746f20746865207a65726f2061646472657373600082015250565b6000612693602083611afd565b915061269e8261265d565b602082019050919050565b600060208201905081810360008301526126c281612686565b9050919050565b7f4552433732313a20746f6b656e20616c7265616479206d696e74656400000000600082015250565b60006126ff601c83611afd565b915061270a826126c9565b602082019050919050565b6000602082019050818103600083015261272e816126f2565b9050919050565b7f45524337323155524953746f726167653a2055524920736574206f66206e6f6e60008201527f6578697374656e7420746f6b656e000000000000000000000000000000000000602082015250565b6000612791602e83611afd565b915061279c82612735565b604082019050919050565b600060208201905081810360008301526127c081612784565b9050919050565b60008190508160005260206000209050919050565b60006020601f8301049050919050565b600082821b905092915050565b6000600883026128297fffffffffffffffffffffffffffffffffffffffffffffffffffffffffffffffff826127ec565b61283386836127ec565b95508019841693508086168417925050509392505050565b6000819050919050565b600061287061286b61286684611ba4565b61284b565b611ba4565b9050919050565b6000819050919050565b61288a83612855565b61289e61289682612877565b8484546127f9565b825550505050565b600090565b6128b36128a6565b6128be818484612881565b505050565b5b818110156128e2576128d76000826128ab565b6001810190506128c4565b5050565b601f821115612927576128f8816127c7565b612901846127dc565b81016020851015612910578190505b61292461291c856127dc565b8301826128c3565b50505b505050565b600082821c905092915050565b600061294a6000198460080261292c565b1980831691505092915050565b60006129638383612939565b9150826002028217905092915050565b61297c82611af2565b67ffffffffffffffff81111561299557612994611def565b5b61299f82546120f6565b6129aa8282856128e6565b600060209050601f8311600181146129dd57600084156129cb578287015190505b6129d58582612957565b865550612a3d565b601f1984166129eb866127c7565b60005b82811015612a13578489015182556001820191506020850194506020810190506129ee565b86831015612a305784890151612a2c601f891682612939565b8355505b6001600288020188555050505b505050505050565b7f4e487b7100000000000000000000000000000000000000000000000000000000600052601160045260246000fd5b6000612a7f82611ba4565b9150612a8a83611ba4565b9250828203905081811115612aa257612aa1612a45565b5b92915050565b6000612ab382611ba4565b9150612abe83611ba4565b9250828201905080821115612ad657612ad5612a45565b5b92915050565b600081519050919050565b600082825260208201905092915050565b6000612b0382612adc565b612b0d8185612ae7565b9350612b1d818560208601611b0e565b612b2681611b38565b840191505092915050565b6000608082019050612b466000830187611c39565b612b536020830186611c39565b612b606040830185611ccf565b8181036060830152612b728184612af8565b905095945050505050565b600081519050612b8c81611a63565b92915050565b600060208284031215612ba857612ba7611a2d565b5b6000612bb684828501612b7d565b91505092915050565b7f4e487b7100000000000000000000000000000000000000000000000000000000600052601260045260246000fdfea264697066735822122083adf79172ef7a268607ffb62d195e201227f0d905b9169eba0175e4019b125464736f6c63430008110033",
  "linkReferences": {},
  "deployedLinkReferences": {}
}